:020000040800F2
:1000000018040020C10100085B040008DD0300089B
:100010005904000809020008AD05000800000000AE
:10002000000000000000000000000000790400084B
:1000300031030008000000005D0400084D050008C1
:10004000DB010008DB010008DB010008DB01000820
:10005000DB010008DB010008DB010008DB01000810
:10006000DB010008DB010008DB010008DB01000800
:10007000DB0100080D020008DB0100085102000846
:10008000DB010008DB010008DB010008DB010008E0
:10009000DB010008DB010008DB010008DB010008D0
:1000A000DB010008DB010008DB010008DB010008C0
:1000B000DB010008DB010008DB010008DB010008B0
:1000C000DB010008DB010008DB010008DB010008A0
:1000D000DB010008DB010008DB010008DB01000890
:1000E000DB010008DB010008DB010008DB01000880
:1000F000DB010008DB010008DB010008DB01000870
:10010000DB010008DB010008DB010008DB0100085F
:10011000DB010008DB010008DB010008DB0100084F
:10012000DB010008DB010008DB010008DB0100083F
:10013000DB010008DB010008DB010008DB0100082F
:10014000DB010008DB010008DB010008DB0100081F
:10015000DB010008DB010008DB010008DB0100080F
:10016000DB010008DB010008DB010008DB010008FF
:10017000DB010008DB010008DB010008DB010008EF
:10018000DB010008DB010008DB010008DB010008DF
:10019000DB010008DB010008DB010008DB010008CF
:1001A000DB010008DB010008DB010008DFF80CD0F0
:1001B00000F018F80048004749060008180400201D
:1001C0000648804706480047FEE7FEE7FEE7FEE7F1
:1001D000FEE7FEE7FEE7FEE7FEE7FEE75105000863
:1001E000AD010008064C074D06E0E06840F0010351
:1001F00094E8070098471034AC42F6D3FFF7DAFFD3
:100200006407000884070008FEE7000070B50D4C85
:100210004FF081552946204600F070F800280FD095
:100220000121094800F0DBF80021204600F05CF8CD
:100230002946204600F042F80449002089680880D9
:1002400070BD000040600240005C004000000020E3
:1002500070B5154D154C2946204600F04FF8002882
:1002600020D00021204600F03FF82946204600F02B
:1002700025F80F4C4FF4204060600E4D0E4E04E008
:100280006268501E606000D2FEE73146284600F0EA
:10029000B0F80028F4D00121284600F0A0F8E16869
:1002A0000020087070BD0000200000207060024037
:1002B00000000020005C004004000010074A90424B
:1002C00001D2074801E005481038064A8B0001EAD0
:1002D000020101D5C160704781607047106402401F
:1002E000006002407D0F7D0F0029016802D041F0BF
:1002F000010101E021F00101016070470246094B54
:1003000000209A4201D2084A01E0064A103A8B00C6
:1003100001D5526800E01268044B1A400A4200D02E
:100320000120704710640240006002407D0F7D0F85
:100330007047F0B50023012403270D6804FA03F287
:100340001540954242D1D0F800C05E0007FA06F58C
:100350002CEA050CC0F800C091F804C0D0F800E009
:100360000CFA06FC4CEA0E0CC0F800C091F804C070
:10037000BCF1010F02D0BCF1020F1FD1D0F808C0B0
:100380002CEA050CC0F808C091F805C0D0F808E0C8
:100390000CFA06FC4CEA0E0CC0F808C0D0F804C0F9
:1003A0002CEA020CC0F804C0426891F806C00CFAAE
:1003B00003FC1FFA8CFC42EA0C024260C268AA43AA
:1003C000C260CA79C568B2402A43C2605B1C102B68
:1003D000B3D3F0BD4183704701837047FEE7002926
:1003E000018802D041F4007101E021F40071018024
:1003F00070470CB50246002000920A0F21F07F41A1
:10040000019202D0009A143202E0009A090C1832CC
:10041000009212680A4200D001200CBD10B50C4CAD
:100420000C4A012108B1217001E0207848B110691F
:10043000C00706D00A2000F0C9F800202070012073
:1004400010BD1069C00700D12170002010BD000050
:100450001400002000000240FEE7704770470000D3
:10046000044A0029116801D0014300E08143116072
:100470007047000030380240704700000CB5002083
:100480002E49019000900A6842F480320A604FF4CD
:10049000A0430A6802F400320092019A521C0192B1
:1004A000009A12B9019A9A42F3D10A68920306D5CA
:1004B0000120224A0090121D2148106000E00090A7
:1004C0001E484030026842F0805202601D480268B7
:1004D00042F440420260194A0832136813601368FC
:1004E00043F400431360136843F4A05313600B6894
:1004F00043F080730B600B689B01FCD5016841F4ED
:10050000803101604168C903FCD5016841F40031C4
:10051000016041688903FCD50B4940F20570086011
:10052000106820F003001060106840F002001060B6
:100530001068C0F381000228FAD10CBD00380240D7
:10054000085A400700700040003C0240704700001D
:10055000124810B5016841F470010160104801684B
:1005600041F0010101600E4A002108321160026869
:100570000C4B1A400260031D0B4A1A60026822F4F9
:100580008022026006480C300160FFF777FF0349C4
:100590004FF000608039086010BD000088ED00E079
:1005A00000380240FFFFF6FE10300024FEE702E0B4
:1005B00008C8121F08C1002AFAD1704770470020EE
:1005C00001E001C1121F002AFBD1704730B504467B
:1005D0004FF47A7502E0284600F004F8641EA4B2D5
:1005E000F9D230BD0B49097848434FF0E02148610A
:1005F00000228A61086940F0010008610869C307A8
:1006000001D0C003FAD5086920F0010008618A61B1
:1006100070470000130000201CB500240121009445
:1006200008460194FFF71CFF012000908DF804405C
:1006300002208DF805008DF8070069460148FFF794
:1006400078FE1CBD000002401CB501211020FFF700
:1006500007FF4FF001088DF80480002580218DF8F8
:1006600005503E4E00918DF806508DF80780694682
:100670003046FFF75EFEFFF7CFFF394C4FF4FA77B5
:100680000020FFF7CBFE2070012804D184F80280FF
:100690006078401C6070607801280ED1A078012835
:1006A000EED180213046FFF795FE3846FFF78EFFEA
:1006B00080213046FFF790FEA570607802281CD19B
:1006C000A0780128DCD180213046FFF783FE384630
:1006D000FFF77CFF80213046FFF77EFE3846FFF7AC
:1006E00075FF80213046FFF775FE3846FFF76EFF35
:1006F00080213046FFF770FEA57060780328BFD1D7
:10070000A0780128BCD180213046FFF763FE38462F
:10071000FFF75CFF80213046FFF75EFE3846FFF7AB
:1007200055FF80213046FFF755FE3846FFF74EFF54
:1007300080213046FFF750FE3846FFF747FF802103
:100740003046FFF747FE3846FFF740FF802130462E
:10075000FFF742FE6570A57092E7000000100240AE
:10076000100000208407000800000020180000008E
:10077000AE0500089C0700081800002000040000D7
:10078000BE0500080000000000A0000000000000FE
:0C0790000000000000000000010000005C
:04000005080001AD41
:00000001FF
